{
  "contractName": "AcademicRecords",
  "abi": [
    {
      "inputs": [],
      "stateMutability": "nonpayable",
      "type": "constructor"
    },
    {
      "inputs": [],
      "name": "owner",
      "outputs": [
        {
          "internalType": "address",
          "name": "",
          "type": "address"
        }
      ],
      "stateMutability": "view",
      "type": "function",
      "constant": true
    },
    {
      "inputs": [
        {
          "internalType": "uint256",
          "name": "",
          "type": "uint256"
        }
      ],
      "name": "records",
      "outputs": [
        {
          "internalType": "string",
          "name": "studentName",
          "type": "string"
        },
        {
          "internalType": "string",
          "name": "course",
          "type": "string"
        },
        {
          "internalType": "string",
          "name": "grade",
          "type": "string"
        }
      ],
      "stateMutability": "view",
      "type": "function",
      "constant": true
    },
    {
      "inputs": [
        {
          "internalType": "string",
          "name": "_studentName",
          "type": "string"
        },
        {
          "internalType": "string",
          "name": "_course",
          "type": "string"
        },
        {
          "internalType": "string",
          "name": "_grade",
          "type": "string"
        }
      ],
      "name": "addRecord",
      "outputs": [],
      "stateMutability": "nonpayable",
      "type": "function"
    },
    {
      "inputs": [],
      "name": "getAllRecords",
      "outputs": [
        {
          "components": [
            {
              "internalType": "string",
              "name": "studentName",
              "type": "string"
            },
            {
              "internalType": "string",
              "name": "course",
              "type": "string"
            },
            {
              "internalType": "string",
              "name": "grade",
              "type": "string"
            }
          ],
          "internalType": "struct AcademicRecords.Record[]",
          "name": "",
          "type": "tuple[]"
        }
      ],
      "stateMutability": "view",
      "type": "function",
      "constant": true
    }
  ],
  "bytecode": "0x608060405234801561001057600080fd5b5033600160006101000a81548173ffffffffffffffffffffffffffffffffffffffff021916908373ffffffffffffffffffffffffffffffffffffffff160217905550610ca6806100616000396000f3fe608060405234801561001057600080fd5b506004361061004c5760003560e01c806334461067146100515780633f723c62146100835780638da5cb5b1461009f578063a7f9fe72146100bd575b600080fd5b61006b600480360381019061006691906107d3565b6100db565b60405161007a93929190610a07565b60405180910390f35b61009d6004803603810190610098919061073c565b6102ad565b005b6100a76103e1565b6040516100b491906109ca565b60405180910390f35b6100c5610407565b6040516100d291906109e5565b60405180910390f35b600081815481106100eb57600080fd5b906000526020600020906003020160009150905080600001805461010e90610bb8565b80601f016020809104026020016040519081016040528092919081815260200182805461013a90610bb8565b80156101875780601f1061015c57610100808354040283529160200191610187565b820191906000526020600020905b81548152906001019060200180831161016a57829003601f168201915b50505050509080600101805461019c90610bb8565b80601f01602080910402602001604051908101604052809291908181526020018280546101c890610bb8565b80156102155780601f106101ea57610100808354040283529160200191610215565b820191906000526020600020905b8154815290600101906020018083116101f857829003601f168201915b50505050509080600201805461022a90610bb8565b80601f016020809104026020016040519081016040528092919081815260200182805461025690610bb8565b80156102a35780601f10610278576101008083540402835291602001916102a3565b820191906000526020600020905b81548152906001019060200180831161028657829003601f168201915b5050505050905083565b600160009054906101000a900473ffffffffffffffffffffffffffffffffffffffff1673ffffffffffffffffffffffffffffffffffffffff163373ffffffffffffffffffffffffffffffffffffffff161461033d576040517f08c379a000000000000000000000000000000000000000000000000000000000815260040161033490610a53565b60405180910390fd5b60006040518060600160405280858152602001848152602001838152509080600181540180825580915050600190039060005260206000209060030201600090919091909150600082015181600001908051906020019061039f92919061061c565b5060208201518160010190805190602001906103bc92919061061c565b5060408201518160020190805190602001906103d992919061061c565b505050505050565b600160009054906101000a900473ffffffffffffffffffffffffffffffffffffffff1681565b60606000805480602002602001604051908101604052809291908181526020016000905b82821015610613578382906000526020600020906003020160405180606001604052908160008201805461045e90610bb8565b80601f016020809104026020016040519081016040528092919081815260200182805461048a90610bb8565b80156104d75780601f106104ac576101008083540402835291602001916104d7565b820191906000526020600020905b8154815290600101906020018083116104ba57829003601f168201915b505050505081526020016001820180546104f090610bb8565b80601f016020809104026020016040519081016040528092919081815260200182805461051c90610bb8565b80156105695780601f1061053e57610100808354040283529160200191610569565b820191906000526020600020905b81548152906001019060200180831161054c57829003601f168201915b5050505050815260200160028201805461058290610bb8565b80601f01602080910402602001604051908101604052809291908181526020018280546105ae90610bb8565b80156105fb5780601f106105d0576101008083540402835291602001916105fb565b820191906000526020600020905b8154815290600101906020018083116105de57829003601f168201915b5050505050815250508152602001906001019061042b565b50505050905090565b82805461062890610bb8565b90600052602060002090601f01602090048101928261064a5760008555610691565b82601f1061066357805160ff1916838001178555610691565b82800160010185558215610691579182015b82811115610690578251825591602001919060010190610675565b5b50905061069e91906106a2565b5090565b5b808211156106bb5760008160009055506001016106a3565b5090565b60006106d26106cd84610aa4565b610a73565b9050828152602081018484840111156106ea57600080fd5b6106f5848285610b76565b509392505050565b600082601f83011261070e57600080fd5b813561071e8482602086016106bf565b91505092915050565b60008135905061073681610c59565b92915050565b60008060006060848603121561075157600080fd5b600084013567ffffffffffffffff81111561076b57600080fd5b610777868287016106fd565b935050602084013567ffffffffffffffff81111561079457600080fd5b6107a0868287016106fd565b925050604084013567ffffffffffffffff8111156107bd57600080fd5b6107c9868287016106fd565b9150509250925092565b6000602082840312156107e557600080fd5b60006107f384828501610727565b91505092915050565b6000610808838361096c565b905092915050565b61081981610b3a565b82525050565b600061082a82610ae4565b6108348185610b07565b93508360208202850161084685610ad4565b8060005b85811015610882578484038952815161086385826107fc565b945061086e83610afa565b925060208a0199505060018101905061084a565b50829750879550505050505092915050565b600061089f82610aef565b6108a98185610b18565b93506108b9818560208601610b85565b6108c281610c48565b840191505092915050565b60006108d882610aef565b6108e28185610b29565b93506108f2818560208601610b85565b6108fb81610c48565b840191505092915050565b6000610913602983610b29565b91507f536f6d656e7465206f206f776e657220706f646520657865637574617220657360008301527f74612066756e63616f00000000000000000000000000000000000000000000006020830152604082019050919050565b600060608301600083015184820360008601526109898282610894565b915050602083015184820360208601526109a38282610894565b915050604083015184820360408601526109bd8282610894565b9150508091505092915050565b60006020820190506109df6000830184610810565b92915050565b600060208201905081810360008301526109ff818461081f565b905092915050565b60006060820190508181036000830152610a2181866108cd565b90508181036020830152610a3581856108cd565b90508181036040830152610a4981846108cd565b9050949350505050565b60006020820190508181036000830152610a6c81610906565b9050919050565b6000604051905081810181811067ffffffffffffffff82111715610a9a57610a99610c19565b5b8060405250919050565b600067ffffffffffffffff821115610abf57610abe610c19565b5b601f19601f8301169050602081019050919050565b6000819050602082019050919050565b600081519050919050565b600081519050919050565b6000602082019050919050565b600082825260208201905092915050565b600082825260208201905092915050565b600082825260208201905092915050565b6000610b4582610b4c565b9050919050565b600073ffffffffffffffffffffffffffffffffffffffff82169050919050565b6000819050919050565b82818337600083830152505050565b60005b83811015610ba3578082015181840152602081019050610b88565b83811115610bb2576000848401525b50505050565b60006002820490506001821680610bd057607f821691505b60208210811415610be457610be3610bea565b5b50919050565b7f4e487b7100000000000000000000000000000000000000000000000000000000600052602260045260246000fd5b7f4e487b7100000000000000000000000000000000000000000000000000000000600052604160045260246000fd5b6000601f19601f8301169050919050565b610c6281610b6c565b8114610c6d57600080fd5b5056fea2646970667358221220d8a5ee8576a1309b8e3eb0e97cee7490d933cbdf155a0c99a82a45a81983bf1564736f6c63430008000033",
  "immutableReferences": {},
  "source": "// SPDX-License-Identifier: MIT\r\npragma solidity ^0.8.0;\r\n\r\n\r\n\r\ncontract AcademicRecords {\r\n    struct Record {\r\n        string studentName;\r\n        string course;\r\n        string grade;\r\n    }\r\n\r\n    Record[] public records;\r\n\r\n    address public owner;\r\n\r\n    constructor() {\r\n        owner = msg.sender;\r\n    }\r\n\r\n    modifier onlyOwner() {\r\n        require(msg.sender == owner, \"Somente o owner pode executar esta funcao\");\r\n        _;\r\n    }\r\n\r\n    function addRecord(string memory _studentName, string memory _course, string memory _grade) public onlyOwner {\r\n        records.push(Record(_studentName, _course, _grade));\r\n    }\r\n\r\n    function getAllRecords() public view returns (Record[] memory) {\r\n        return records;\r\n    }\r\n}\r\n",
  "sourcePath": "C:\\Users\\fabri\\Blockchain\\contracts\\AcademicRecords.sol",
  "compiler": {
    "name": "solc",
    "version": "0.8.0+commit.c7dfd78e.Emscripten.clang"
  },
  "schemaVersion": "3.4.16",
  "updatedAt": "2024-05-27T20:55:53.400Z",
  "networkType": "ethereum",
  "devdoc": {
    "kind": "dev",
    "methods": {},
    "version": 1
  },
  "userdoc": {
    "kind": "user",
    "methods": {},
    "version": 1
  }
}